:020000040800F2
:100000009806002091010008490C00084B0C0008DC
:100010004F0C0008530C0008570C000800000000AB
:100020000000000000000000000000005B0C000861
:100030005D0C0008000000005F0C0008610C000867
:10004000AB010008AB010008AB010008AB010008E0
:10005000AB010008AB010008AB010008AB010008D0
:10006000AB010008AB010008AB010008AB010008C0
:10007000AB010008AB010008AB010008AB010008B0
:10008000AB010008AB010008AB010008AB010008A0
:10009000AB010008AB010008AB010008AB01000890
:1000A000AB010008AB010008AB010008AB01000880
:1000B000AB010008AB010008AB010008AB01000870
:1000C000AB010008AB010008AB010008AB01000860
:1000D000AB010008AB010008AB010008AB01000850
:1000E000AB010008AB010008AB01000800F002F80A
:1000F00000F03FF80AA090E8000C82448344AAF183
:100100000107DA4501D100F034F8AFF2090EBAE880
:100110000F0013F0010F18BFFB1A43F0010318473B
:100120001C2D00003C2D0000103A24BF78C878C177
:10013000FAD8520724BF30C830C144BF04680C60ED
:10014000704700000023002400250026103A28BF35
:1001500078C1FBD8520728BF30C148BF0B60704739
:10016000642901F08B84002070471FB51FBD10B5B6
:1001700010BD01F044FD1146FFF7F7FF00F09CFCB5
:1001800001F062FD03B4FFF7F2FF03BC01F066FD6E
:100190000948804709480047FEE7FEE7FEE7FEE71B
:1001A000FEE7FEE7FEE7FEE7FEE7FEE70448054957
:1001B000054A064B70470000A9090008ED00000839
:1001C0009800002098060020980200209802002045
:1001D00010B50446CA48844208D10121042000F029
:1001E00027FB0021042000F023FB46E0C5488442A1
:1001F00008D10121082000F01BFB0021082000F09D
:1002000017FB3AE0C048844208D10121102000F0D9
:100210000FFB0021102000F00BFB2EE0BB488442B6
:1002200008D10121202000F003FB0021202000F054
:10023000FFFA22E0B648844208D10121402000F0B4
:10024000F7FA0021402000F0F3FA16E0B1488442AA
:1002500008D10121802000F0EBFA0021802000F07D
:10026000E7FA0AE0AC48844207D10121801500F08A
:10027000DFFA0021A01500F0DBFA10BD10B5012156
:10028000084600F0D5FA0021012000F0D1FA10BD97
:100290002DE9F0410246002500260020002300241D
:1002A000002791F803C00CF00F0591F803C01CF073
:1002B000100F03D091F802C04CEA050591F800C078
:1002C000BCF1000F31D0146800202BE04FF0010C7E
:1002D0000CFA00F3B1F800C00CEA03069E4220D1EC
:1002E00083004FF00F0C0CFA03F7BC4305FA03FC34
:1002F0004CEA040491F803C0BCF1280F06D14FF07A
:10030000010C0CFA00FCC2F814C00AE091F803C01A
:10031000BCF1480F05D14FF0010C0CFA00FCC2F8FB
:1003200010C0401C0828D1D31460B1F800C0BCF143
:10033000FF0F34DD546800202EE000F1080C4FF070
:10034000010808FA0CF3B1F800C00CEA03069E425B
:1003500021D183004FF00F0C0CFA03F7BC4305FAD0
:1003600003FC4CEA040491F803C0BCF1280F05D14A
:1003700000F1080C08FA0CF8C2F8148091F803C0D8
:10038000BCF1480F07D100F1080C4FF0010808FA42
:100390000CF8C2F81080401C0828CED35460BDE889
:1003A000F0814FF6FF710180022181700421C1703C
:1003B00070470246002093680B4201D0012000E004
:1003C000002070470146886880B2704702460020CE
:1003D000D3680B4201D0012000E0002070470146A5
:1003E000C86880B2704701617047416170470AB1C7
:1003F000016100E041617047C16070474FF4803295
:100400000A43826181618261826982697047024622
:100410000020424B18684FF68073184040EA0210E3
:1004200008433E4B186070473D49C8617047F0B5BE
:100430000A46002300240021002500F00046B6F102
:10044000004F02D1354EF16901E0344E7168C0F3BE
:10045000034583B200F44016B6F5401F08D121F0E1
:1004600070612E4E766826F070662C4F7E6012E02A
:1004700000F48016B6F5801F06D1032606FA05F4AF
:10048000A14341F0706106E0460D360103FA06F61D
:10049000B14341F0706122B1460D360103FA06F610
:1004A000314300F00046B6F1004F02D11B4EF1611E
:1004B00001E01A4E7160F0BD30B500228B071C0FB1
:1004C0000F2303FA04F2154B08338C1053F8243031
:1004D0009343124C08348D1044F8253023468C1079
:1004E00053F824308C07240F00FA04F423430B4CF8
:1004F00008348D1044F8253030BD0A490860704733
:1005000000080140000C01400010014000140140AF
:1005100000180140001C0140002001400000014083
:1005200000002042DC002042DD48006840F001006D
:10053000DB49086008464068DA490840D849486005
:1005400008460068D8490840D54908600846006850
:1005500020F4802008600846406820F4FE004860CF
:100560004FF41F0088607047CD49096821F480313D
:10057000CB4A11601146096821F480211160B0F561
:10058000803F03D0B0F5802F0ED106E0C449096842
:1005900041F48031C24A116007E0C149096841F461
:1005A000A021BF4A116000E000BF00BF704710B536
:1005B00001460022002300204A11012A02D1B84C32
:1005C000236806E0022A02D1B54C236A01E0B44C4C
:1005D000636A01F01F02012494401C4201D00120F3
:1005E00000E0002010BD38B5002000900024002558
:1005F00000BF3120FFF7DBFF05460098401C00904C
:100600000098B0F5A06F01D0002DF2D03120FFF797
:10061000CEFF08B1012400E00024204638BD014689
:1006200000209F4A106820F0F80040EAC1001060E6
:1006300070479E490860704702460020984B5868F2
:1006400020F47C1042EA01031843954B5860704730
:1006500096490866704701460020914A506820F08C
:1006600003000843506070478D48406800F00C005C
:100670007047014600208A4A506820F0F000084385
:100680005060704701460020854A506820F4E060C1
:1006900008435060704701460020814A506820F4AA
:1006A000605040EAC1005060704729B17C4A527ADC
:1006B00002437B4B5A7204E0794A527A8243784B68
:1006C0005A7270477A490860704701460020744AA0
:1006D000506820F440400843506070470021754A3C
:1006E00011706F4A82F82010012802D0042808D126
:1006F00003E001216F4A117004E005216D4A117079
:1007000000E000BF00BF70476B4908607047644954
:10071000096A0143624A11627047674944390860B7
:10072000704730B500210022002400235C4D6D6825
:1007300005F00C0121B1042905D0082923D105E0D9
:100740005E4D056022E05D4D05601FE0544D6D6813
:1007500005F47012524D6D6805F48034022505EBE6
:1007600092421CB9564D554305600BE04C4D6D68E7
:1007700015F4003F03D0524D5543056002E04F4D44
:100780005543056002E04D4D056000BF00BF444D7C
:100790006D6805F0F00109094A4D6B5C0568DD40A4
:1007A00045603F4D6D6805F4E061090A454D6B5C9D
:1007B0004568DD4085603A4D6D6805F46051C90AB1
:1007C000404D6B5C4568DD40C560354D6D6805F496
:1007D0004041890B3C4D6B5CC568B5FBF3F5056189
:1007E00030BD29B12E4A526902432D4B5A6104E0B3
:1007F0002B4A526982432A4B5A61704729B1284AD1
:1008000092690243264B9A6104E0254A9269824329
:10081000234B9A61704729B1214AD2690243204B88
:10082000DA6104E01E4AD26982431D4BDA617047E7
:1008300029B11B4AD2680243194BDA6004E0184A16
:10084000D2688243164BDA60704729B1144A1269A4
:100850000243134B1A6104E0114A12698243104BA0
:100860001A61704714494039086070470F49C864DD
:1008700070470B49C87170470948406A40F0807062
:1008800007494862704701460020054A92680A42BB
:1008900001D0012000E000207047014988727047B4
:1008A000001002400000FFF8FFFFF6FE0000424289
:1008B000D8004242201002408004424200127A00D6
:1008C00000093D0000000020100000200CB50020B1
:1008D000019000906B48006840F4803069490860DE
:1008E00000BF6848006800F4003000900198401C88
:1008F0000190009818B90198B0F5A06FF1D1614846
:10090000006810F4003F02D00120009001E00020B8
:1009100000900098012842D15B48006840F0100028
:10092000594908600846006820F00300086008463E
:10093000006840F002000860524840685149486031
:100940000846406848600846406840F48060486057
:100950000846406820F47C1048600846406840F42F
:10096000E81048600846006840F08070086000BFEA
:100970004448006810F0007FFAD04248406820F0F8
:100980000300404948600846406840F00200486063
:1009900000BF3C48406800F00C000828F9D10CBDAD
:1009A00010B5FFF793FF10BD10B53648006840F052
:1009B000010034490860084640683449084031491C
:1009C000486008460068324908402E4908600846D9
:1009D000006820F4802008600846406820F4FE008B
:1009E00048604FF41F008860FFF7DAFF4FF00060A7
:1009F0002849086010BD10B5002100200022214BBD
:100A00005B6803F00C0121B1042906D0082928D124
:100A100007E0214B214C236027E01F4B1F4C236034
:100A200023E0184B5B6803F47010164B5B6803F40B
:100A30008032022303EB904022B9194B4343174CF9
:100A400023600DE00F4B5B6813F4003F04D0144BA0
:100A50004343124C236003E00F4B43430F4C23608E
:100A600003E00D4B0D4C236000BF00BF054B5B68DE
:100A7000C3F303130B4CE15C084B1B68CB40074CE2
:100A8000236010BD00100240002002400000FFF86B
:100A9000FFFFF6FE08ED00E000127A0014000020CF
:100AA00000093D00180000204749086000BF464982
:100AB00009680029FBD1704786B0444800684FF4AC
:100AC0007A72B0FBF2F1B1F1807F00D31DE021F02A
:100AD0007F40401E4FF0E022506150170F22002847
:100AE00007DA13071E0E3A4B00F00F052D1F5E5557
:100AF00003E013071D0E374B1D5400BF00204FF0BD
:100B0000E02290610720106100BF00F0DFFA4FF68D
:100B1000FF7000F09AFB00F0DBFE00F03CFF4FF6A8
:100B2000FF7000F0ECFA1F2000F0EFFA002000F058
:100B300085FB182000F082FB302000F07FFB48206E
:100B400000F07CFB602000F079FB23A1182000F06E
:100B50005FFB00F03AFF012804D125A1482000F0F6
:100B600057FB03E027A1482000F052FB1F2000F0B4
:100B7000C6FA4FF6FF7000F0C8FA23E000F0F3FE6B
:100B80000446237824A2142101A800F029FF01A91A
:100B9000902000F03DFB637823A2142101A800F00F
:100BA0001FFF01A9A82000F033FBA37822A2142183
:100BB00001A800F015FF01A9C02000F029FBC82002
:100BC000FFF772FFDAE70000280000201400002081
:100BD00018ED00E000E400E020202020204D454DED
:100BE000532044454D4F20202020202000000000AD
:100BF000204D454D53205354415455533A204F4BAB
:100C000000000000204D454D53205354415455538E
:100C10003A204552524F52002058205265673A25DB
:100C200064202020200000002059205265673A25CA
:100C30006420202020000000205A205265673A25B9
:100C40006420202020000000704700BFFEE700BFA6
:100C5000FEE700BFFEE700BFFEE770477047704742
:100C60000448006820B103480068401E014908603C
:100C70007047000028000020002109E0002201E068
:100C8000531C9AB240F6B8339A42F9DB4B1C99B226
:100C90008142F3DB70474FF40072F94B1A60521037
:100CA0001A6020221B1F1A60F64AD06020221B1DEA
:100CB0001A601B1F1A60D2001A60F24AD16020220B
:100CC0001B1D1A601B1F1A60D2001A60704700B506
:100CD00001210020FFF7DFFF4FF47A70FFF7CCFF10
:100CE00000210120FFF7D7FF41F290711020FFF79C
:100CF000D2FF4FF41C516020FFF7CDFF012161208E
:100D0000FFF7C9FF02214620FFF7C5FF48F2100197
:100D10001320FFF7C0FF48F2FE011220FFF7BBFFD0
:100D20004FF4A0610220FFF7B6FF41F2300103202B
:100D3000FFF7B1FF40F203313020FFF7ACFF40F284
:100D400003313120FFF7A7FF40F203313220FFF7D4
:100D5000A2FF4FF440713320FFF79DFF03213420A1
:100D6000FFF799FF40F203313520FFF794FF14217C
:100D70003620FFF790FF40F203313720FFF78BFF5B
:100D800040F203313820FFF786FF40F2033139206B
:100D9000FFF781FF4FF440713A20FFF77CFF0321FA
:100DA0003B20FFF778FF40F203313C20FFF773FF51
:100DB0004FF4A0513D20FFF76EFF4FF400719220D9
:100DC000FFF769FF40F203319320FFF764FF40F61D
:100DD0000D019020FFF75FFF41F218010320FFF79C
:100DE0005AFF40F273110720FFF755FF00BD10B501
:100DF00043F20801E320FFF74EFF1221E720FFF73F
:100E00004AFF41F23121EF20FFF745FF0021012089
:100E1000FFF741FF4FF4E0610220FFF73CFF41F292
:100E200030010320FFF737FF00210420FFF733FFD5
:100E300040F207210820FFF72EFF00210920FFF7CD
:100E40002AFF00210A20FFF726FF00210C20FFF7D0
:100E500022FF00210D20FFF71EFF00210F20FFF7CA
:100E60001AFF00211020FFF716FF07211120FFF7BE
:100E700012FF00211220FFF70EFF00211320FFF7C1
:100E80000AFFC820FFF710FE41F290611020FFF723
:100E900002FF40F227211120FFF7FDFE3220FFF76D
:100EA00003FE1D211220FFF7F6FE3220FFF7FCFDA6
:100EB0004FF400611320FFF7EEFE14212920FFF705
:100EC000EAFE0B212B20FFF7E6FE3220FFF7ECFDB8
:100ED00000212020FFF7DFFE00212120FFF7DBFEAD
:100EE00007213020FFF7D7FE40F207713120FFF7CE
:100EF000D2FE06213220FFF7CEFE40F204713520EB
:100F0000FFF7C9FE41F604713620FFF7C4FE042145
:100F10003720FFF7C0FE00213820FFF7BCFE40F26B
:100F200006713920FFF7B7FE40F201713C20FFF750
:100F3000B2FE0F213D20FFF7AEFE00215020FFF74B
:100F4000AAFEEF215120FFF7A6FE00215220FFF755
:100F5000A2FE40F23F115320FFF79DFE4FF41C51BB
:100F60006020FFF798FE01216120FFF794FE002129
:100F70006A20FFF790FE00218020FFF78CFE002101
:100F80008120FFF788FE00218220FFF784FE0021E8
:100F90008320FFF780FE00218420FFF77CFE0021E4
:100FA0008520FFF778FE10219020FFF774FE0021C6
:100FB0009220FFF770FE03219320FFF76CFE4FF4A1
:100FC00088719520FFF767FE00219720FFF763FEE9
:100FD00000219820FFF75FFE41F218010320FFF780
:100FE0005AFE40F273110720FFF755FE10BD08B5F9
:100FF0004FF6FF70ADF8000003208DF802001020BE
:101000008DF8030069461F48FFF742F908BD08B58F
:101010004FF6FF70ADF8000003208DF80200482065
:101020008DF8030069461748FFF732F908BD70B51F
:1010300004464FF4007012490860401008602020F8
:10104000091F08600F48C4602020091D0860091F9F
:101050000860C0000860FFF7DAFF4FF480600849BD
:1010600008600848806885B20815091F0860FFF706
:10107000BEFF4FF400700249091F0860284670BD8A
:10108000140C01400010014008B501211820FFF7A1
:10109000B5FB01212020FFF7B1FB4FF4E460ADF870
:1010A000000001208DF8020010208DF80300694631
:1010B000F848FFF7EDF8FFF79AFFF64810300068A0
:1010C00040F4C460F3491031086008BD10B5FFF763
:1010D000DBFF0020FFF7ABFFEF49088008460088E0
:1010E000A0F50241303902D1FFF7F1FD01E0FFF731
:1010F0007EFE0020FFF79BFFE749088010BD01B589
:10110000BDF80000E549088008BD01B5BDF8000044
:10111000E349088008BD30B504460D46214620202D
:10112000FFF7B9FD29462120FFF7B5FD30BD4FF48B
:101130000071D84A143211604910121F1160202129
:101140001160D849C8602021121D1160121F116062
:10115000C90011604900116070474FF40070CD491B
:1011600014310860401008602020091F0860222008
:10117000CC49C8602020C74914310860091F0860A5
:10118000C00008604000086070472DE9F043064643
:101190008946174600240025A046B04649464046E9
:1011A000FFF7B9FF00BF1EE0FFF7D7FF00250FE0F4
:1011B00037F814000121A940084204D1B84800883A
:1011C000FFF7B5FF03E0B5480088FFF7B0FF6D1CDF
:1011D000102DEDD308F1010000F0FF08494640460C
:1011E000FFF799FF641C182CDED3BDE8F08370B5BF
:1011F00005460E461446A4F12000C4B204EB440098
:10120000A94901EB001231462846FFF7BEFF70BD29
:10121000F0B507460C46002540F23F1609E022785B
:1012200031463846FFF7E3FFA6F1100086B2641C92
:101230006D1C207808B1142DF1D3F0BD10B5044613
:101240009AA12046FFF7E4FF10BD30B50546002403
:1012500000210846FFF75FFFFFF77FFF00BF03E0B5
:101260002846FFF764FF641CB4F5963FF8D330BD01
:10127000F0B504460D4616461F46B44206DBA01BD9
:10128000401C81B25020FFF706FD03E000215020F2
:10129000FFF701FD21465120FFF7FDFCBD4206DBB3
:1012A000E81B401C81B25220FFF7F5FC03E000214F
:1012B0005220FFF7F0FC29465320FFF7ECFC2946AB
:1012C0002046FFF728FFF0BD00B54FF4A073F022D1
:1012D000591EEF20FFF7CCFF41F218010320FFF762
:1012E000DAFC00BD2DE9F0410646884615461F464A
:1012F000002441463046FFF70EFF5FB9FFF72DFF90
:1013000000BF04E065480088FFF711FF641CAC4291
:10131000F8D310E000240CE0FFF71FFF5F480088BF
:10132000FFF705FF701CC6B241463046FFF7F3FEDB
:10133000641CAC42F0D3BDE8F081F0B505460E4622
:1013400017461C460023224631462846FFF7CAFFAF
:10135000E919C8B2002322463146FFF7C3FF012333
:101360003A4631462846FFF7BDFF301B401C81B28C
:1013700001233A462846FFF7B5FFF0BD2DE9F043BB
:1013800006460F4690460320A0EB48090024454638
:101390006EE07A1991B23219D0B2FFF7BCFEFFF7B6
:1013A000DCFE3E480088FFF7C2FE7A1B91B232197C
:1013B000D0B2FFF7B0FEFFF7D0FE38480088FFF745
:1013C000B6FE7A1991B2321BD0B2FFF7A4FEFFF736
:1013D000C4FE32480088FFF7AAFE7A1B91B2321B86
:1013E000D0B2FFF798FEFFF7B8FE2C480088FFF751
:1013F0009EFE3A1991B27219D0B2FFF78CFEFFF738
:10140000ACFE26480088FFF792FE3A1B91B2721993
:10141000D0B2FFF780FEFFF7A0FE20480088FFF75C
:1014200086FE3A1991B2721BD0B2FFF774FEFFF735
:1014300094FE1A480088FFF77AFE3A1B91B2721B9D
:10144000D0B2FFF768FEFFF788FE14480088FFF768
:101450006EFEB9F1000F04DA062000EB840081442F
:1014600005E0601B0A2101EB800081446D1E641CB5
:10147000AC428ED9BDE8F08370B506460024002545
:1014800040F23F110020FFF746FEFFF766FE00BF67
:101490002DE00000000C0140300000202C00002056
:1014A0002E000020001001406A1C0008202020208F
:1014B000202020202020202020202020202020202C
:1014C0000000000000250FE056F824000121A9408B
:1014D000084204D15F480088FFF729FE03E05E4818
:1014E0000088FFF724FE6D1C202DEDD3641CB4F59D
:1014F000166FE7D370BD70B50446002500266688D8
:10150000A08846EA00466589A08945EA0045701B27
:1015100046082C4441F208010320FFF7BCFBFFF70B
:101520001CFE002504E02088FFF701FEA41C6D1CB2
:10153000B542F8D341F218010320FFF7ACFB70BDB0
:1015400010B54FF400704549086040100860202035
:10155000091F086022204249C86020203F490860D6
:10156000091F0860C0000860FFF751FD4FF480605C
:101570003A4908603A48806884B20815091F086033
:10158000FFF735FD4FF400703449091F086020460D
:1015900010BD00B500211020FFF77DFB00211120B8
:1015A000FFF779FB00211220FFF775FB00211320C4
:1015B000FFF771FB1420FFF75FFB41F2B0711020C1
:1015C000FFF769FB40F237111120FFF764FB05209C
:1015D000FFF752FB40F239111220FFF75CFB0520A8
:1015E000FFF74AFB4FF4E8511320FFF754FB132198
:1015F0002920FFF750FB0520FFF73EFB40F2731157
:101600000720FFF748FB00BD00B540F2731107202B
:10161000FFF741FB00BD00B500210720FFF73BFBB2
:1016200000BD30B5054600210846FFF774FDFFF701
:1016300094FD002409E015F814206100491C695C40
:1016400042EA0120FFF773FD641CB4F5963FF2DB1C
:1016500030BD00002E0000202C000020140C0140A2
:101660000010014008B52020ADF8000002208DF8E0
:10167000020028208DF8030069469F48FEF708FE07
:1016800008BD08B52020ADF8000002208DF802004A
:1016900010208DF8030069469748FEF7F9FD08BD54
:1016A00010B5044624B120219348FEF79CFE03E0C8
:1016B00020219148FEF799FE10BD10B5044624B1D3
:1016C00010218D48FEF78FFE03E010218A48FEF7B7
:1016D0008CFE10BD10B520218748FEF76AFE10BDB4
:1016E000002100E0491C8142FCD3704710B5012065
:1016F000FFF7D6FF4FF4FA70FFF7F2FF0120FFF774
:10170000DCFF4FF4FA70FFF7EBFF0020FFF7C8FF94
:101710004FF4FA70FFF7E4FF0020FFF7CEFF4FF41D
:10172000FA70FFF7DDFF10BD10B50020FFF7C5FF11
:101730004FF4FA70FFF7D4FF0020FFF7B1FF4FF42A
:10174000FA70FFF7CDFF0120FFF7B7FF4FF4FA70F3
:10175000FFF7C6FF0120FFF7A3FF4FF4FA70FFF772
:10176000BFFF10BD10B50524FFF77CFF4FF4FA70E2
:10177000FFF7B6FF0120FFF7A0FF4FF4FA70FFF765
:10178000AFFF0CE0601E84B24FF4FA70FFF7A8FFC1
:101790002CB9FFF776FFFFF7C7FF002010BDFFF75A
:1017A00099FF0028EED1FFF76CFF0020FFF785FFBF
:1017B0004FF4FA70FFF794FF0120EFE710B5002017
:1017C000FFF76EFF4FF4FA70FFF78AFF4FF4FA70DD
:1017D000FFF786FF0120FFF770FF4FF4FA70FFF765
:1017E0007FFF0020FFF769FF4FF4FA70FFF778FFE3
:1017F00010BD10B50120FFF753FF4FF4FA70FFF74B
:101800006FFF0120FFF759FF4FF4FA70FFF768FFF1
:101810000020FFF752FF4FF4FA70FFF761FF10BD91
:1018200070B5044608251BE00020FFF746FF4FF483
:10183000FA70FFF755FF04F08000FFF731FF4FF417
:10184000FA70FFF74DFF6006040E4FF4FA70FFF7D1
:1018500047FF0120FFF731FF4FF4FA70FFF740FF19
:101860002800A5F10101CDB2DED1FFF726FF4FF42C
:10187000FA70FFF735FF70BD70B508250024FFF73B
:10188000F1FE16E06006040E0020FFF716FF4FF48D
:10189000FA70FFF725FF4FF4FA70FFF721FF0120E0
:1018A000FFF70BFF4FF4FA70FFF71AFFFFF712FF75
:1018B00004432800A5F10101CDB2E3D1FFF7FDFEFD
:1018C0004FF4FA70FFF70CFFFFF7DBFE204670BD08
:1018D00008B501210420FEF791FF3020ADF800008B
:1018E00002208DF8020010208DF80300694602489E
:1018F000FEF7CEFC08BD00000008014070B50546AB
:101900000C46FFF7F3FE3820FFF78AFFFFF72AFFA8
:101910002846FFF785FFFFF725FF2046FFF780FFEA
:10192000FFF720FFFFF700FF70BD70B50446FFF71B
:10193000DDFE3820FFF774FFFFF714FF2046FFF7A6
:101940006FFFFFF70FFFFFF7D1FE3920FFF768FFAA
:10195000FFF708FFFFF790FF0546FFF74AFFFFF785
:10196000E3FE284670BD10B52720FFF7DEFF10F01C
:10197000080F0ED02920FFF7D8FF184908702B2038
:10198000FFF7D3FF154948702D20FFF7CEFF13490D
:101990008870124810BD10B547212020FFF7AEFF18
:1019A00000212120FFF7AAFFC1212220FFF7A6FF77
:1019B00028213220FFF7A2FF28213320FFF79EFFC6
:1019C00010213020FFF79AFF10BD10B50F20FFF750
:1019D000ACFF08B1012010BD0020FCE73200002060
:1019E0000FB41CB50C0007AA009001D02044401E83
:1019F000074B7B4469460190069800F0E0F8002C04
:101A000003D06946002000F0EDF81CBC5DF814FB23
:101A1000F90100002DE9F0410E4604460020206245
:101A20002046E168884730B3252805D0D4E9012154
:101A30009047206A401CF2E7E1682046002788476B
:101A4000050018D0A5F14100192802D820354FF41F
:101A500000673246294620462760FEF781FB40B1E9
:101A6000012804D0F61D26F007060836D8E7361DF3
:101A7000D6E72846DAE7206ABDE8F0812DE9F04193
:101A80000646002410687529314616A511D0AFF31B
:101A90000080002803DAC0F1000013A507E03168D8
:101AA0008A0701D511A502E0490704D510A5012434
:101AB00001E0AFF3008000210A2306F1240707E0CC
:101AC000B0FBF3F203FB1200303078541046491C8F
:101AD0000028F5D123462A463046BDE8F04100F003
:101AE0000CB80000000000002D0000002B000000DA
:101AF000200000007047704770472DE9F0470D4601
:101B000099469246044600F124080168880604D5E7
:101B1000E06921F01001216000E00120A84202DD0F
:101B2000A0EB050700E00027A16907EB050202EB27
:101B30000900A1EB0000A0612078C00602D4204675
:101B4000AFF30080002608E0D4E901211AF806006E
:101B50009047206A401C761C20624E45F4DB2078BA
:101B6000C0060AD52046AFF3008006E0D4E9012183
:101B700030209047206A401C2062381EA7F10107E0
:101B8000F4DC07E0D4E9012118F805009047206A49
:101B9000401C2062281EA5F10105F3DC2046AFF3AE
:101BA00000802078000602D50220BDE8F0870120E1
:101BB000FBE7000001694A1C02610878704700B524
:101BC0008FB0CDE901310021059105497944CDE976
:101BD000031011466846FFF71DFF0FB000BD00005F
:101BE000E5FFFFFF0A6802F8010B0A607047D1E9C0
:101BF00000239A4202D2531C0B6010707047754646
:101C000000F028F8AE4605006946534620F007006C
:101C1000854618B020B5FEF7C9FABDE820404FF060
:101C200000064FF000074FF000084FF0000B21F0C6
:101C30000701AC46ACE8C009ACE8C009ACE8C00993
:101C4000ACE8C0098D4670470446AFF300802046DB
:101C5000FEF798FA00487047380000200149182024
:101C6000ABBEFEE726000200704700000000000047
:101C70000000000000000000000000000000000064
:101C80000000000000000000000000000000000054
:101C90000000000000000000000000008001800142
:101CA000800180018001800180018001800180012C
:101CB000800180018001000000008001800100009F
:101CC0000000000000000000000000000000CC0048
:101CD000CC00CC00CC00CC00CC0000000000000008
:101CE00000000000000000000000000000000000F4
:101CF00000000000000000000000000000000000E4
:101D0000000000000000600C600C600C3006300623
:101D1000FE1FFE1F300638071803FE1FFE1F1803A4
:101D200018038C018C018C01000000008000E0038E
:101D3000F80F9C0E8C1C8C188C009800F801E007A2
:101D4000800E801C8C188C189C18B80CF00FE003C7
:101D50008000800000000000000000000000000083
:101D60000E181B0C110C11061106110311039B0117
:101D70008E01C038C06C6044604430443044184424
:101D8000186C0C380000000000000000E001F003B7
:101D90003807180618063003F001F000F8009C31EF
:101DA0000E33061E061C061C063FFC73F0210000C5
:101DB00000000000000000000000000000000C0017
:101DC0000C000C000C000C000C00000000000000D7
:101DD0000000000000000000000000000000000003
:101DE00000000000000000000000000000020003EE
:101DF0008001C000C0006000600030003000300092
:101E00003000300030003000300060006000C00062
:101E1000C0008001000300020000000020006000FC
:101E2000C0008001800100030003000600060006D8
:101E300000060006000600060006000300038001FD
:101E40008001C000600020000000000000000000D1
:101E5000000000000000C000C000D806F807E00144
:101E60003003380700000000000000000000000000
:101E70000000000000000000000000000000000062
:101E800000000000000080018001800180018001CD
:101E9000FC3FFC3F80018001800180018001000047
:101EA0000000000000000000000000000000000032
:101EB0000000000000000000000000000000000022
:101EC0000000000000000000000000008001800110
:101ED0000001000180000000000000000000000080
:101EE00000000000000000000000000000000000F2
:101EF0000000E007E0070000000000000000000014
:101F000000000000000000000000000000000000D1
:101F100000000000000000000000000000000000C1
:101F2000000000000000000000000000C000C00031
:101F3000000000000000000000000000000C000C89
:101F40000006000600060003000300038003800172
:101F500080018001C000C000C0006000600000007F
:101F6000000000000000000000000000E003F00797
:101F7000380E180C0C180C180C180C180C180C181F
:101F80000C180C180C18180C380EF007E0030000A1
:101F900000000000000000000000000000018001BF
:101FA000C001F00198018801800180018001800159
:101FB000800180018001800180018001800100009A
:101FC000000000000000000000000000E003F80F27
:101FD000180C0C180C1800180018000C0006000350
:101FE0008001C000600030001800FC1FFC1F0000D2
:101FF000000000000000000000000000E001F80701
:10200000180E0C0C0C0C000C0006C003C007000CD2
:10201000001800180C180C18180CF807E003000042
:10202000000000000000000000000000000C000E96
:10203000000F000F800DC00C600C600C300C180CF1
:102040000C0CFC3FFC3F000C000C000C000C0000D2
:10205000000000000000000000000000F80FF80F72
:10206000180018000C00EC03FC071C0E001C0018E4
:10207000001800180C181C0C180EF807E0030000DC
:10208000000000000000000000000000C007F00F8A
:10209000381C181818000C00CC03EC0F3C0E1C1C4C
:1020A0000C180C180C18181C380EF007E003000070
:1020B000000000000000000000000000FC1FFC1FEA
:1020C000000C00060006000380038001C001C00070
:1020D000E000600060007000300030003000000060
:1020E000000000000000000000000000E003F00716
:1020F000380E180C180C180C3806F007F007180CDE
:102100000C180C180C180C18380CF80FE003000011
:10211000000000000000000000000000E003F007E5
:10212000380E1C0C0C180C180C181C1C381EF81B34
:10213000E0190018000C000C1C0EF807F00100005C
:10214000000000000000000000000000000000008F
:10215000000000000000800180010000000000007D
:10216000000000000000000000008001800100006D
:10217000000000000000000000000000000000005F
:10218000000000000000800180010000000000004D
:10219000000000000000000000008001800100013C
:1021A00000018000000000000000000000000000AE
:1021B000000000000000000000000010001C800F64
:1021C000E003F8001800F800E003800F001C001086
:1021D00000000000000000000000000000000000FF
:1021E00000000000000000000000F81F00000000D8
:1021F0000000F81F000000000000000000000000C8
:1022000000000000000000000000000000000000CE
:102210000000000000000000000008003800F0018D
:10222000C007001F0018001FC007F0013800080099
:10223000000000000000000000000000E003F80FB4
:10224000180C0C180C180018000C00060003800174
:10225000C000C000C00000000000C000C0000000BE
:102260000000000000000000000000000000E00787
:1022700018180420C229224A114409440944094477
:1022800009221113E20C024004201818E007000094
:102290000000000000000000000000008003800338
:1022A000C006C006C006600C600C3018301830182C
:1022B000F83FF83F1C700C600C6006C006C00000C0
:1022C000000000000000000000000000FC03FC0F04
:1022D0000C0C0C180C180C180C0CFC07FC0F0C1830
:1022E0000C300C300C300C300C18FC1FFC070000BC
:1022F000000000000000000000000000C007F01F08
:1023000038381C300C700660060006000600060017
:102310000600060006600C701C30F01FE00700008D
:10232000000000000000000000000000FE03FE0F9F
:10233000060E06180618063006300630063006303F
:102340000630063006180618060EFE0FFE030000C3
:10235000000000000000000000000000FC3FFC3F07
:102360000C000C000C000C000C00FC1FFC1F0C00EF
:102370000C000C000C000C000C00FC3FFC3F0000AB
:10238000000000000000000000000000F83FF83FDF
:1023900018001800180018001800F81FF81F18007F
:1023A0001800180018001800180018001800000085
:1023B000000000000000000000000000E00FF83FF7
:1023C0003C780E6006E007C00300030003FE03FE36
:1023D00003C007C006C00EC03CF0F83FE00F00008D
:1023E0000000000000000000000000000C300C3075
:1023F0000C300C300C300C300C30FC3FFC3F0C30FF
:102400000C300C300C300C300C300C300C30000028
:1024100000000000000000000000000080018001BA
:1024200080018001800180018001800180018001A4
:102430008001800180018001800180018001000015
:102440000000000000000000000000000006000680
:10245000000600060006000600060006000600064C
:1024600000060006180618063807F003E001000011
:102470000000000000000000000000000630061808
:10248000060C060606038601C60066007600DE001E
:102490008E0106030606060C0618063006600000CC
:1024A00000000000000000000000000018001800FC
:1024B000180018001800180018001800180018005C
:1024C00018001800180018001800F81FF81F000066
:1024D0000000000000000000000000000EE01EF000
:1024E0001EF01EF036D836D836D836D866CC66CC34
:1024F00066CCC6C6C6C6C6C6C6C686C386C30000E8
:102500000000000000000000000000000C301C3043
:102510003C303C306C306C30CC30CC308C310C33B7
:102520000C330C360C360C3C0C3C0C380C300000D8
:10253000000000000000000000000000E007F81F9D
:102540001C380E70066003C003C003C003C003C084
:1025500003C003C006600E701C38F81FE0070000BF
:10256000000000000000000000000000FC0FFC1F45
:102570000C380C300C300C300C300C18FC1FFC07E5
:102580000C000C000C000C000C000C000C000000F7
:10259000000000000000000000000000E007F81F3D
:1025A0001C380E70066003E003C003C003C003C004
:1025B00003C007E006630E3F1C3CF83FE0F700C095
:1025C000000000000000000000000000FE0FFE1FE1
:1025D00006380630063006300638FE1FFE070603B2
:1025E0000606060C061806180630063006600000BF
:1025F000000000000000000000000000E003F80FF1
:102600001C0C0C180C180C001C00F803E00F001E2A
:102610000038063006300E301C1CF80FE0070000B2
:10262000000000000000000000000000FE7FFE7FB0
:102630008001800180018001800180018001800192
:102640008001800180018001800180018001000003
:102650000000000000000000000000000C300C3002
:102660000C300C300C300C300C300C300C300C308A
:102670000C300C300C300C301818F81FE00700003C
:1026800000000000000000000000000003600630B1
:10269000063006300C180C180C18180C180C380ED4
:1026A00030063006700760036003C001C0010000FF
:1026B0000000000000000000000000000360C36193
:1026C000C361C3616633663366336633663366332C
:1026D0006C1B6C1B6C1B2C1A3C1E380E380E000039
:1026E0000000000000000000000000000FE00C707F
:1026F00018303018700C600EC00780038003C003D0
:10270000E006700C301C18180C300E6007E000005A
:1027100000000000000000000000000003C0066090
:102720000C301C383818300C6006E007C0038001FC
:102730008001800180018001800180018001000012
:10274000000000000000000000000000FC7FFC7F93
:10275000006000300018000C000600038001C0007B
:102760006000300018000C000600FE7FFE7F0000B5
:10277000000000000000000000000000E003E00393
:102780006000600060006000600060006000600049
:102790006000600060006000600060006000600039
:1027A00060006000E003E003000000003000300043
:1027B000600060006000C000C000C000C001800177
:1027C00080018001000300030003000600060000F2
:1027D000000000000000000000000000E003E00333
:1027E00000030003000300030003000300030003D1
:1027F00000030003000300030003000300030003C1
:1028000000030003E003E003000000000000C0013B
:10281000C00160036003600330063006180C180C1A
:1028200000000000000000000000000000000000A8
:102830000000000000000000000000000000000098
:102840000000000000000000000000000000000088
:10285000000000000000000000000000FFFFFFFF7C
:102860000000000000000000000000000C000C0050
:102870000C000C000C000C00000000000000000028
:102880000000000000000000000000000000000048
:102890000000000000000000000000000000000038
:1028A000000000000000F003F8071C0C0C0C000FE7
:1028B000F00FF80C0C0C0C0C1C0FF80FF0180000AB
:1028C00000000000000000000000000018001800D8
:1028D000180018001800D803F80F380C181818182A
:1028E0001818181818181818380CF80FD803000002
:1028F00000000000000000000000000000000000D8
:10290000000000000000C003F007300E180C180093
:10291000180018001800180C300EF007C003000053
:102920000000000000000000000000000018001877
:10293000001800180018C01BF01F301C18181818B9
:102940001818181818181818301CF01FC01B000091
:102950000000000000000000000000000000000077
:10296000000000000000C003F00F300C1818F81F22
:10297000F81F180018003818301CF00FC0070000AE
:10298000000000000000000000000000800FC00FE9
:10299000C000C000C000F007F007C000C000C000C9
:1029A000C000C000C000C000C000C000C0000000E7
:1029B0000000000000000000000000000000000017
:1029C000000000000000E00DF80F180E0C0C0C0CBD
:1029D0000C0C0C0C0C0C0C0C180EF80FE00D000C71
:1029E0000C0C1C06F807F00100000000180018008D
:1029F000180018001800D807F80F381C18181818F5
:102A00001818181818181818181818181818000076
:102A1000000000000000000000000000C000C00036
:102A2000000000000000C000C000C000C000C000E6
:102A3000C000C000C000C000C000C000C000000056
:102A4000000000000000000000000000C000C00006
:102A5000000000000000C000C000C000C000C000B6
:102A6000C000C000C000C000C000C000C000C00066
:102A7000C000C000F8007800000000000C000C004E
:102A80000C000C000C000C0C0C060C038C01CC0090
:102A90006C00FC009C018C030C030C060C0C000069
:102AA000000000000000000000000000C000C000A6
:102AB000C000C000C000C000C000C000C000C00016
:102AC000C000C000C000C000C000C000C0000000C6
:102AD00000000000000000000000000000000000F6
:102AE0000000000000007C3CFF7EC7E383C183C17F
:102AF00083C183C183C183C183C183C183C10000FA
:102B000000000000000000000000000000000000C5
:102B10000000000000009807F80F381C181818185B
:102B20001818181818181818181818181818000055
:102B30000000000000000000000000000000000095
:102B4000000000000000C003F00F300C1818181827
:102B50001818181818181818300CF00FC0030000B7
:102B60000000000000000000000000000000000065
:102B7000000000000000D803F80F380C18181818CF
:102B80001818181818181818380CF80FD803180047
:102B900018001800180018000000000000000000D5
:102BA000000000000000C01BF01F301C181818188F
:102BB0001818181818181818301CF01FC01B001807
:102BC00000180018001800180000000000000000A5
:102BD000000000000000B007F0037000300030007B
:102BE0003000300030003000300030003000000095
:102BF00000000000000000000000000000000000D5
:102C0000000000000000E003F003380E180C38004C
:102C1000F003C007000C180C380EF007E0030000AA
:102C20000000000000000000000000000000800024
:102C3000C000C000C000F007F007C000C000C00026
:102C4000C000C000C000C000C000C0078007000076
:102C50000000000000000000000000000000000074
:102C60000000000000001818181818181818181874
:102C70001818181818181818381CF01FE019000038
:102C80000000000000000000000000000000000044
:102C90000000000000000C18180C180C180C30066E
:102CA00030063006600360036003C001C00100000D
:102CB0000000000000000000000000000000000014
:102CC000000000000000C141C141C3616363636350
:102CD00063633636363636361C1C1C1C1C1C000042
:102CE00000000000000000000000000000000000E4
:102CF0000000000000001C38381C300C6006600327
:102D00006003600360036006300C381C1C38000050
:102D100000000000000000000000000000000000B3
:102D20000000000000001830301830187018600CD7
:102D3000600CE00CC006C0068003800380038001A5
:102D40008001C001F00070000000000000000000E1
:102D5000000000000000FC1FFC1F000C0006000328
:102D60008001C000600030001800FC1FFC1F000044
:102D700000000000000000000000000000038001CF
:102D8000C000C000C000C000C000C0006000600003
:102D9000300060004000C000C000C000C000C000A3
:102DA000C0008001000300000000000080018001DD
:102DB000800180018001800180018001800180010B
:102DC00080018001800180018001800180018001FB
:102DD0008001800180018001000000006000C000CF
:102DE000C001800180018001800180010003000397
:102DF0000006000300018001800180018001800144
:102E00008001C00060000000000000000000000021
:102E100000000000000000000000F010F81F080F84
:102E200000000000000000000000000000000000A2
:102E30000000000000000000000000005C2E000800
:102E4000000000203800000028010008942E00082F
:102E50003800002060060000440100080000000067
:102E6000010203040102030406070809020406081C
:102E700000A24A0400000000000000000102030458
:102E800006070809000000000000FFFF0000000026
:042E9000000000003E
:04000005080000ED02
:00000001FF
